{
  "_format": "hh-sol-artifact-1",
  "contractName": "basic_dong",
  "sourceName": "contracts/Dong.sol",
  "abi": [
    {
      "inputs": [
        {
          "internalType": "address",
          "name": "_beneficiary",
          "type": "address"
        },
        {
          "internalType": "uint256",
          "name": "_totalAmount",
          "type": "uint256"
        },
        {
          "internalType": "uint256",
          "name": "_contributors",
          "type": "uint256"
        },
        {
          "internalType": "string",
          "name": "_name",
          "type": "string"
        }
      ],
      "stateMutability": "nonpayable",
      "type": "constructor"
    },
    {
      "inputs": [],
      "name": "beneficiary",
      "outputs": [
        {
          "internalType": "address",
          "name": "",
          "type": "address"
        }
      ],
      "stateMutability": "view",
      "type": "function"
    },
    {
      "inputs": [],
      "name": "beneficiaryName",
      "outputs": [
        {
          "internalType": "string",
          "name": "",
          "type": "string"
        }
      ],
      "stateMutability": "view",
      "type": "function"
    },
    {
      "inputs": [],
      "name": "contributors",
      "outputs": [
        {
          "internalType": "uint256",
          "name": "",
          "type": "uint256"
        }
      ],
      "stateMutability": "view",
      "type": "function"
    },
    {
      "inputs": [],
      "name": "counter",
      "outputs": [
        {
          "internalType": "uint256",
          "name": "",
          "type": "uint256"
        }
      ],
      "stateMutability": "view",
      "type": "function"
    },
    {
      "inputs": [],
      "name": "dong",
      "outputs": [
        {
          "internalType": "uint256",
          "name": "",
          "type": "uint256"
        }
      ],
      "stateMutability": "view",
      "type": "function"
    },
    {
      "inputs": [],
      "name": "finished",
      "outputs": [
        {
          "internalType": "bool",
          "name": "",
          "type": "bool"
        }
      ],
      "stateMutability": "view",
      "type": "function"
    },
    {
      "inputs": [
        {
          "internalType": "uint256",
          "name": "",
          "type": "uint256"
        }
      ],
      "name": "names",
      "outputs": [
        {
          "internalType": "string",
          "name": "",
          "type": "string"
        }
      ],
      "stateMutability": "view",
      "type": "function"
    },
    {
      "inputs": [
        {
          "internalType": "string",
          "name": "_name",
          "type": "string"
        }
      ],
      "name": "payDong",
      "outputs": [],
      "stateMutability": "payable",
      "type": "function"
    },
    {
      "inputs": [
        {
          "internalType": "address",
          "name": "",
          "type": "address"
        }
      ],
      "name": "payment",
      "outputs": [
        {
          "internalType": "uint256",
          "name": "",
          "type": "uint256"
        }
      ],
      "stateMutability": "view",
      "type": "function"
    },
    {
      "inputs": [],
      "name": "remainingAmount",
      "outputs": [
        {
          "internalType": "uint256",
          "name": "",
          "type": "uint256"
        }
      ],
      "stateMutability": "view",
      "type": "function"
    }
  ],
  "bytecode": "0x60806040523480156200001157600080fd5b50604051620013e6380380620013e683398181016040528101906200003791906200027a565b33600260006101000a81548173ffffffffffffffffffffffffffffffffffffffff021916908373ffffffffffffffffffffffffffffffffffffffff16021790555083600160006101000a81548173ffffffffffffffffffffffffffffffffffffffff021916908373ffffffffffffffffffffffffffffffffffffffff1602179055508060009080519060200190620000d19291906200012a565b50670de0b6b3a764000083620000e891906200039e565b60038190555081600481905550600454670de0b6b3a7640000846200010e91906200039e565b6200011a919062000366565b6005819055505050505062000599565b828054620001389062000473565b90600052602060002090601f0160209004810192826200015c5760008555620001a8565b82601f106200017757805160ff1916838001178555620001a8565b82800160010185558215620001a8579182015b82811115620001a75782518255916020019190600101906200018a565b5b509050620001b79190620001bb565b5090565b5b80821115620001d6576000816000905550600101620001bc565b5090565b6000620001f1620001eb8462000333565b620002ff565b9050828152602081018484840111156200020a57600080fd5b620002178482856200043d565b509392505050565b600081519050620002308162000565565b92915050565b600082601f8301126200024857600080fd5b81516200025a848260208601620001da565b91505092915050565b60008151905062000274816200057f565b92915050565b600080600080608085870312156200029157600080fd5b6000620002a1878288016200021f565b9450506020620002b48782880162000263565b9350506040620002c78782880162000263565b925050606085015167ffffffffffffffff811115620002e557600080fd5b620002f38782880162000236565b91505092959194509250565b6000604051905081810181811067ffffffffffffffff8211171562000329576200032862000536565b5b8060405250919050565b600067ffffffffffffffff82111562000351576200035062000536565b5b601f19601f8301169050602081019050919050565b6000620003738262000433565b9150620003808362000433565b925082620003935762000392620004d8565b5b828204905092915050565b6000620003ab8262000433565b9150620003b88362000433565b9250817fffffffffffffffffffffffffffffffffffffffffffffffffffffffffffffffff0483118215151615620003f457620003f3620004a9565b5b828202905092915050565b60006200040c8262000413565b9050919050565b600073ffffffffffffffffffffffffffffffffffffffff82169050919050565b6000819050919050565b60005b838110156200045d57808201518184015260208101905062000440565b838111156200046d576000848401525b50505050565b600060028204905060018216806200048c57607f821691505b60208210811415620004a357620004a262000507565b5b50919050565b7f4e487b7100000000000000000000000000000000000000000000000000000000600052601160045260246000fd5b7f4e487b7100000000000000000000000000000000000000000000000000000000600052601260045260246000fd5b7f4e487b7100000000000000000000000000000000000000000000000000000000600052602260045260246000fd5b7f4e487b7100000000000000000000000000000000000000000000000000000000600052604160045260246000fd5b6200057081620003ff565b81146200057c57600080fd5b50565b6200058a8162000433565b81146200059657600080fd5b50565b610e3d80620005a96000396000f3fe6080604052600436106100915760003560e01c806361bc221a1161005957806361bc221a146101825780636e7e3b2b146101ad578063951e8ebe146101d8578063a50a1fe614610203578063bef4876b1461022e57610091565b806323d525201461009657806338af3eed146100b25780633b92f3df146100dd578063450f12721461011a5780634622ab0314610145575b600080fd5b6100b060048036038101906100ab919061083e565b610259565b005b3480156100be57600080fd5b506100c7610549565b6040516100d491906109da565b60405180910390f35b3480156100e957600080fd5b5061010460048036038101906100ff9190610815565b61056f565b6040516101119190610a72565b60405180910390f35b34801561012657600080fd5b5061012f610587565b60405161013c9190610a10565b60405180910390f35b34801561015157600080fd5b5061016c6004803603810190610167919061087f565b610615565b6040516101799190610a10565b60405180910390f35b34801561018e57600080fd5b506101976106b5565b6040516101a49190610a72565b60405180910390f35b3480156101b957600080fd5b506101c26106bb565b6040516101cf9190610a72565b60405180910390f35b3480156101e457600080fd5b506101ed6106c1565b6040516101fa9190610a72565b60405180910390f35b34801561020f57600080fd5b506102186106c7565b6040516102259190610a72565b60405180910390f35b34801561023a57600080fd5b506102436106cd565b60405161025091906109f5565b60405180910390f35b60055434101561029e576040517f08c379a000000000000000000000000000000000000000000000000000000000815260040161029590610a32565b60405180910390fd5b60001515600760009054906101000a900460ff161515146102f4576040517f08c379a00000000000000000000000000000000000000000000000000000000081526004016102eb90610a52565b60405180910390fd5b6000806003543411610323576005543461030e9190610cdb565b9150813461031c9190610beb565b9050610339565b600354346103319190610beb565b915060035490505b806003600082825461034b9190610beb565b9250508190555080600860003373ffffffffffffffffffffffffffffffffffffffff1673ffffffffffffffffffffffffffffffffffffffff16815260200190815260200160002060008282546103a19190610b0a565b925050819055506001600660008282546103bb9190610b0a565b925050819055508260096000600654815260200190815260200160002090805190602001906103eb9291906106e0565b503373ffffffffffffffffffffffffffffffffffffffff166108fc839081150290604051600060405180830381858888f19350505050158015610432573d6000803e3d6000fd5b506000600354141561054457600160009054906101000a900473ffffffffffffffffffffffffffffffffffffffff1673ffffffffffffffffffffffffffffffffffffffff166108fc600a4760096104899190610b91565b6104939190610b60565b9081150290604051600060405180830381858888f193505050501580156104be573d6000803e3d6000fd5b50600260009054906101000a900473ffffffffffffffffffffffffffffffffffffffff1673ffffffffffffffffffffffffffffffffffffffff166108fc479081150290604051600060405180830381858888f19350505050158015610527573d6000803e3d6000fd5b506001600760006101000a81548160ff0219169083151502179055505b505050565b600160009054906101000a900473ffffffffffffffffffffffffffffffffffffffff1681565b60086020528060005260406000206000915090505481565b6000805461059490610ca9565b80601f01602080910402602001604051908101604052809291908181526020018280546105c090610ca9565b801561060d5780601f106105e25761010080835404028352916020019161060d565b820191906000526020600020905b8154815290600101906020018083116105f057829003601f168201915b505050505081565b6009602052806000526040600020600091509050805461063490610ca9565b80601f016020809104026020016040519081016040528092919081815260200182805461066090610ca9565b80156106ad5780601f10610682576101008083540402835291602001916106ad565b820191906000526020600020905b81548152906001019060200180831161069057829003601f168201915b505050505081565b60065481565b60045481565b60055481565b60035481565b600760009054906101000a900460ff1681565b8280546106ec90610ca9565b90600052602060002090601f01602090048101928261070e5760008555610755565b82601f1061072757805160ff1916838001178555610755565b82800160010185558215610755579182015b82811115610754578251825591602001919060010190610739565b5b5090506107629190610766565b5090565b5b8082111561077f576000816000905550600101610767565b5090565b600061079661079184610abe565b610a8d565b9050828152602081018484840111156107ae57600080fd5b6107b9848285610c67565b509392505050565b6000813590506107d081610dd9565b92915050565b600082601f8301126107e757600080fd5b81356107f7848260208601610783565b91505092915050565b60008135905061080f81610df0565b92915050565b60006020828403121561082757600080fd5b6000610835848285016107c1565b91505092915050565b60006020828403121561085057600080fd5b600082013567ffffffffffffffff81111561086a57600080fd5b610876848285016107d6565b91505092915050565b60006020828403121561089157600080fd5b600061089f84828501610800565b91505092915050565b6108b181610c1f565b82525050565b6108c081610c31565b82525050565b60006108d182610aee565b6108db8185610af9565b93506108eb818560208601610c76565b6108f481610dc8565b840191505092915050565b600061090c602883610af9565b91507f6d73672e76616c7565206d757374206265206174206c6561737420657175616c60008301527f20746f20646f6e670000000000000000000000000000000000000000000000006020830152604082019050919050565b6000610972602583610af9565b91507f5468652070726f636573732068617320616c7265616479206265656e2066696e60008301527f69736865640000000000000000000000000000000000000000000000000000006020830152604082019050919050565b6109d481610c5d565b82525050565b60006020820190506109ef60008301846108a8565b92915050565b6000602082019050610a0a60008301846108b7565b92915050565b60006020820190508181036000830152610a2a81846108c6565b905092915050565b60006020820190508181036000830152610a4b816108ff565b9050919050565b60006020820190508181036000830152610a6b81610965565b9050919050565b6000602082019050610a8760008301846109cb565b92915050565b6000604051905081810181811067ffffffffffffffff82111715610ab457610ab3610d99565b5b8060405250919050565b600067ffffffffffffffff821115610ad957610ad8610d99565b5b601f19601f8301169050602081019050919050565b600081519050919050565b600082825260208201905092915050565b6000610b1582610c5d565b9150610b2083610c5d565b9250827fffffffffffffffffffffffffffffffffffffffffffffffffffffffffffffffff03821115610b5557610b54610d0c565b5b828201905092915050565b6000610b6b82610c5d565b9150610b7683610c5d565b925082610b8657610b85610d3b565b5b828204905092915050565b6000610b9c82610c5d565b9150610ba783610c5d565b9250817fffffffffffffffffffffffffffffffffffffffffffffffffffffffffffffffff0483118215151615610be057610bdf610d0c565b5b828202905092915050565b6000610bf682610c5d565b9150610c0183610c5d565b925082821015610c1457610c13610d0c565b5b828203905092915050565b6000610c2a82610c3d565b9050919050565b60008115159050919050565b600073ffffffffffffffffffffffffffffffffffffffff82169050919050565b6000819050919050565b82818337600083830152505050565b60005b83811015610c94578082015181840152602081019050610c79565b83811115610ca3576000848401525b50505050565b60006002820490506001821680610cc157607f821691505b60208210811415610cd557610cd4610d6a565b5b50919050565b6000610ce682610c5d565b9150610cf183610c5d565b925082610d0157610d00610d3b565b5b828206905092915050565b7f4e487b7100000000000000000000000000000000000000000000000000000000600052601160045260246000fd5b7f4e487b7100000000000000000000000000000000000000000000000000000000600052601260045260246000fd5b7f4e487b7100000000000000000000000000000000000000000000000000000000600052602260045260246000fd5b7f4e487b7100000000000000000000000000000000000000000000000000000000600052604160045260246000fd5b6000601f19601f8301169050919050565b610de281610c1f565b8114610ded57600080fd5b50565b610df981610c5d565b8114610e0457600080fd5b5056fea26469706673582212200872fe9fe27971afd713558dcc83b3277e30fcf597510bc9c939199e32e81b0c64736f6c63430008000033",
  "linkReferences": {},
  "deployedLinkReferences": {}
}